:020000040800F2
:100000001804002001010008230C0008390B000827
:10001000210C00086D0100081D0E00080000000002
:10002000000000000000000000000000270C000895
:100030001502000800000000250C0008B90D00089A
:100040001B0100081B0100081B0100081B01000820
:100050001B0100081B0100081B0100081B01000810
:100060001B0100081B0100081B0100081B01000800
:100070001B0100081B0100081B0100081B010008F0
:100080001B0100081B0100081B0100081B010008E0
:100090001B0100081B0100081B0100081B010008D0
:1000A0001B0100081B0100081B0100081B010008C0
:1000B0001B0100081B0100081B0100081B010008B0
:1000C0001B0100081B0100081B0100081B010008A0
:1000D0001B0100081B0100081B0100081B01000890
:1000E0001B0100081B0100081B010008DFF80CD0F1
:1000F00000F02AF8004800475D0E000818040020B0
:100100000648804706480047FEE7FEE7FEE7FEE7B1
:10011000FEE7FEE7FEE7FEE7FEE7FEE71B0E000850
:10012000ED000008D2B201E000F8012B491EFBD21D
:1001300070470022F6E710B513460A4604461946F2
:10014000FFF7F0FF204610BD064C074D06E0E068C3
:1001500040F0010394E8070098471034AC42F6D30E
:10016000FFF7C8FFE00E0008000F0008FEE70000E0
:1001700070B5264D4FF48071284600F0D3F9244C19
:1001800068B9C82000F0CCF82078401CC0B22070BC
:100190000A2801D30A202070C0B200F045FD4FF4B8
:1001A0000071284600F0BEF948B9C82000F0B8F840
:1001B000217809B1491E2170C8B200F035FD012136
:1001C000284600F0AFF968B9C82000F0A9F86078B7
:1001D000401CC0B26070A178884200D36170607822
:1001E00000F0A0FD0221284600F09CF900280BD168
:1001F000C82000F095F8607808B1401E6070BDE836
:100200007040C0B200F08EBD70BD0000000C014017
:10021000000000207047000010B5144C0022082197
:10022000204600F084F901221021204600F07FF9D9
:1002300000222021204600F07AF9012240212046A8
:1002400000F075F90A4C01225103204600F06FF9C5
:1002500000224FF48041204600F069F92046012237
:10026000BDE81040D10300F062B90000000C01406D
:10027000001001402DE9F0470122DFF898808946FF
:10028000044697033946404600F051F904EB440513
:10029000214E224C705D2060032000F041F80022C6
:1002A0003946404600F043F901225703394640469B
:1002B00000F03DF9354468782060032000F030F804
:1002C00000223946404600F032F901221603314639
:1002D000404600F02CF9A8782060032000F020F8B8
:1002E00000223146404600F022F90122D50329467A
:1002F000404600F01CF90849133911F80900206044
:10030000032000F00DF829464046BDE8F0470022E2
:1003100000F00DB9000C0140AF0E00080C080140C0
:1003200070B5044600F008F90546601C02D0044888
:100330000078044400F000F9401BA042FAD370BDDD
:10034000040000202DE9F84FDFF8B891002409F1EE
:10035000040A0AF1040B23460F270BF1040EC9E02F
:100360000125A5402A40AA427DD1674ED1F804C09C
:10037000ACEB0608B44532D014DCBCF1030F3AD024
:1003800009DCBCF1000F2AD0BCF1010F1CD0BCF17C
:10039000020F31D11DE0BCF1110F17D0BCF1120FCB
:1003A0002AD119E0B8F5881F19D006DCB8F5803FCE
:1003B00015D0B8F5801F1FD111E0B8F5001F0ED081
:1003C000B8F5041F18D10AE0CB6815E0CB681B1DF7
:1003D00012E0CB6808330FE0CB680C330CE08B687D
:1003E0002BB1012B4FF0080303D0456104E0042337
:1003F00002E0056100E00023FF2A01D8064601E083
:1004000000F104064FEA840501D9A5F12005D6F8CC
:10041000008007FA05FC28EA0C0803FA05F548EA0B
:100420000508C6F800804D68ED0062D5374DAE690D
:1004300046F00106AE61AD6924F0030605F0010542
:100440000095334D06EB050CDCF80850A607360F77
:1004500007FA06F825EA0805DFF8B880404503D119
:100460004FF0000817E044E0DFF8AC80404502D1CF
:100470004FF001080FE0DFF8A480404502D14FF0B3
:10048000020808E0DFF89880404502D14FF00308E9
:1004900001E04FF0040808FA06F848EA0508CCF82D
:1004A00008804D68D9F80060ED034D4601D516432C
:1004B00000E096432E604D68DAF80060AD035546C3
:1004C00001D5164300E096432E604D68DBF80060CE
:1004D000ED025D4601D5164300E096432E604D685F
:1004E000DEF80060AD02754601D5164300E0964384
:1004F0002E60641C0D682A46E5407FF431AFBDE8EC
:10050000F88F0000000401400000111000100240AC
:100510000000014000080140000C014000100140B3
:10052000001401408068084000D0012070470AB1E3
:10053000016170470904FBE70148806870470000CB
:1005400004000020024881680278114481607047ED
:1005500004000020074810B5016841F01001016057
:10056000032000F067F8002000F006F800F024F8FF
:10057000002010BD0020024070B50D4D04464FF420
:100580007A712878B1FBF0F00A490968B1FBF0F004
:1005900000F0BEFA48B9102C07D200222146501EA6
:1005A00000F028F800206C6070BD012070BD0000D4
:1005B00004000020100000200C4808B5816941F0BB
:1005C00001018161816901F001010091C16941F07E
:1005D0008051C161C06900F08050009004484168BA
:1005E00021F0E06141F00071416008BD001002405F
:1005F00000000140F0B40E4B1B680C46C3F302230D
:10060000C3F10705042D00D90425191D072901D2BE
:10061000002300E0DB1E012606FA05F1491E2140F9
:1006200099409E40761E16403143F0BC00F0F7BB67
:100630000CED00E0064900F0070208684FF6FF03E2
:10064000184040EA0220034A104308607047000047
:100650000CED00E00000FA052DE9F0470F4605001B
:1006600061D0434E306800F00700B84209D23068CC
:1006700020F0070038433060306800F00700B842CF
:1006800051D128683B4C810712D5400703D56068DB
:1006900040F4E06060602878000703D5606840F4AB
:1006A000605060606068A96820F0F00008436060F6
:1006B0002878C00728D06868012810D0216802284F
:1006C00010D0890700292EDA616821F00301014367
:1006D0006160FFF731FF804641F288390DE0216803
:1006E0008903EFE78901EDE7FFF726FFA0EB08019B
:1006F000494502D90320BDE8F0876068696800F0C9
:100700000C00B0EB810FEFD1306800F00700B84269
:100710000BD9306820F0070038433060306800F0B3
:100720000700B84201D00120E5E72878400705D549
:100730006068E96820F4E06008436060287800079A
:1007400006D56068296920F4605040EAC100606005
:1007500000F018F86168084AC1F30311515CC84001
:100760000649086006480068FFF706FF0020C2E758
:100770000020024000100240D00E000810000020AF
:100780000800002012A185B00FC98DE80F0014A049
:10079000144A006804905168134801F00C03042BBC
:1007A00010D0082B0ED1C1F38343C9031DF80300F9
:1007B0000AD5516804AAC1F34041515C0A4A50432A
:1007C000B0FBF1F005B0704708494843FAE7000074
:1007D00002030405060708090A0B0C0D0E0F101082
:1007E000010200000010024000127A0000093D00E2
:1007F0002DE9F84F040070D02078C04DC00749D0D3
:100800006868C0F38100012807D06868C0F38100E0
:10081000022809D16868C00306D52868800339D545
:1008200060680028E7D035E06068B0F5803F0BD005
:1008300010B1B0F5A02F11D0286820F480302860C6
:10084000286820F4802002E0286840F48030286086
:10085000606890B1FFF770FE06460AE0286840F431
:1008600080202860F0E700BFFFF766FE801B642849
:1008700073D828688003F7D50CE0FFF75DFE0646C5
:1008800005E000BFFFF758FE801B6428F0D82868F9
:100890008003F7D420789A4E80074FF001094FF07B
:1008A000000839D5686810F00C0F07D06868C0F3ED
:1008B0008100022809D16868C00306D4286880072F
:1008C00014D52069012808D110E02069B0B1C6F81C
:1008D0000090FFF731FE074605E00AE1FFF72CFE26
:1008E000C01B0228C4D828688007F7D5286861692A
:1008F00020F0F80040EAC10028600DE0C6F8008052
:10090000FFF71AFE074604E0FFF716FEC01B022899
:1009100023D828688007F7D4207800072CD5794899
:10092000A169D9B1C0F80090FFF706FE074604E0C0
:10093000FFF702FEC01B02280FD8686A8007F7D5B0
:1009400071484FF4FA510068B0FBF1F0009000BF1D
:100950000098411E0091FAD20EE080E0C0F80080BD
:10096000FFF7EAFD074604E0FFF7E6FDC01B02289B
:1009700075D8686A8007F7D42078400760D5E869A1
:100980000027C00008D4E86940F08050E861E869B9
:10099000012700F0805000905C480168C90513D41D
:1009A0000168834641F480710160FFF7C5FD82460E
:1009B00006E000BFFFF7C0FDA0EB0A0064284ED898
:1009C000DBF80000C005F5D5E06801280AD008B1C1
:1009D000052813D0286A20F001002862286A20F038
:1009E000040002E0286A40F001002862E06841F259
:1009F000883B98B1FFF7A0FD82460BE0286A40F0E3
:100A000004002862EEE700BFFFF796FDA0EB0A01A5
:100A100059455AD8286A8007F6D50CE0FFF78CFDB7
:100A2000824605E0FFF788FDA0EB0A0159454CD846
:100A3000286A8007F6D41FB1E86920F08050E86189
:100A4000E06988B36968C1F38101022944D00228B2
:100A5000C6F8608004D0FFF76FFD044638E034E04C
:100A6000FFF76AFD074604E0FFF766FDC01B02289A
:100A70002BD828688001F7D4206AB0F5803F05D1D3
:100A80006868A16820F4003008436860D4E9080170
:100A90000843696821F4741108436860C6F86090DF
:100AA000FFF74AFD044606E025E000BFFFF744FDDE
:100AB000001B022809D828688001F7D51BE000BF79
:100AC000FFF73AFD001B022802D90320BDE8F88F8A
:100AD00028688001F4D40EE00128F7D06868226A03
:100AE00000F48031914204D1616A00F470108842B0
:100AF00001D00120EAE70020E8E7000000100240F2
:100B00000000424280044242100000200070004079
:100B100010B5401EB0F1807F01D3012010BD4FF011
:100B2000E02460610F21601700F079F90020A061D6
:100B300007202061002010BDFEE700002DE9F047EE
:100B400086B0002432480094019402940394816991
:100B500041F020018161816901F0200104918169E6
:100B600041F004018161816901F00401049181690E
:100B700041F008018161816901F0080104918169F6
:100B800041F0100181618069DFF8888000F0100079
:100B90000490002248F2FF014046FFF7C8FCDFF84E
:100BA0007890002247F20F014846FFF7C0FCDFF8BB
:100BB0006CA04FF46047002239465046FFF7B7FC5F
:100BC000FF2001250226CDE90005CDE90246694650
:100BD0004046FFF7B7FB4FF27800CDE90005CDE9BD
:100BE000024669464846FFF7ADFB40F283308DE888
:100BF000310069464846FFF7A5FB00970396CDE90B
:100C0000015469465046FFF79DFB06B0BDE8F087EA
:100C10000010024000080140000C0140001001409B
:100C2000FEE7FEE77047704710B53D4CF8B101286C
:100C30001FD002281FD0032825D0042835D005282E
:100C40003AD006283FD0072844D008284ED009289B
:100C500058D00A2862D1012208212046FFF767FCFC
:100C6000002210212046FFF762FC012205E000224D
:100C70003DE0002247E00022EEE720212046FFF77A
:100C800056FC00220BE0002208212046FFF74FFC13
:100C9000002225E020212046FFF749FC01222046C2
:100CA000BDE810404021FFF742BC00220821204649
:100CB000FFF73DFC01221FE0002208212046FFF73C
:100CC00036FC012224E0002208212046FFF72FFCF9
:100CD0000122C6E7002208212046FFF728FC012256
:100CE00010212046FFF723FC0122D3E7012208212F
:100CF0002046FFF71CFC002210212046FFF717FCBE
:100D00000022BAE7012208212046FFF710FC00224A
:100D100010212046FFF70BFC0022BBE710BD0000AE
:100D2000000C014070B54FF40051224C4D008E0074
:100D300098B1012813D0022813D0032819D0042811
:100D400024D0052828D006282CD0072830D101220D
:100D50002046FFF7ECFB01220DE0002217E0002205
:100D60001BE000221FE029462046FFF7E0FB00229F
:100D700006E00022ECE729462046FFF7D8FB0122D7
:100D800031462046BDE87040FFF7D1BB0122204626
:100D9000FFF7CDFB0022E6E701222046FFF7C7FB65
:100DA0000022E8E701222046FFF7C1FB0122DAE733
:100DB00070BD000000100140FFF7C4BB30B58FB01C
:100DC00028216846FFF7B5F914210AA8FFF7B1F901
:100DD00001210804CDE900100024029402250491A9
:100DE000CDE907504FF4E01009906846FFF700FD89
:100DF00008B172B6FEE70F20CDE90A054FF4806016
:100E0000CDE90C4002210AA80E94FFF725FC00282A
:100E100001D072B6FEE70FB030BD7047FEE709079C
:100E2000090E002804DB00F1E02080F80014704770
:100E300000F00F0000F1E02080F8141D704702E080
:100E400008C8121F08C1002AFAD170477047002055
:100E500001E001C1121F002AFBD17047FFF77AFBA6
:100E6000FFF7ACFFFFF76AFEFFF7D6F980210948CC
:100E7000FFF758FB084C40B10520A070FFF778F948
:100E800061782078FFF7F6F9F8E7C820FFF748FA0D
:100E90000720F2E7000C0140000000209F250D997B
:100EA00049411F01039F250D9949411F0109FEFE7C
:100EB000034903FE9F03FE2503FE4903039F03032B
:100EC00025030349039F030325030349039F0303EA
:100ED00000000000000000000102030406070809EA
:100EE000000F000800000020140000003E0E000863
:100EF000140F000814000020040400004E0E000827
:100F000005020000010000001000000000000000C9
:040F10000024F400C5
:04000005080000ED02
:00000001FF
